S01E0000547261666669634C69676874436F6E74726F6C6C65722E737265632B
S113000012C019C018C017C016C015C014C013C040
S113001012C011C010C00FC00EC00DC00CC00BC068
S11300200AC009C008C011241FBECFE5D4E0DEBF5A
S1130030CDBF28D045C0E4CF2FEF80E792E0215018
S113004080409040E1F700C0000018BA000087B378
S11300508F6387BB000015BA000084B384BB000023
S113006012BA000081B38C6F81BB81B3836081BB02
S11300702FE788E391E0215080409040E1F700C0F1
S1130080000008958FEC97E00197F1F700C000009D
S1130090D3DF9FEF21EE84E0915020408040E1F7D0
S11300A000C000009098919892989398949895988D
S11300B096989798C098C198C298C398C498FFCF4F
S10700C0F894FFCFDE
S9030000FC
